:100000000C9414040C945B040C945B040C945B043B
:100010000C945B040C945B040C945B040C945B04E4
:100020000C945B040C945B040C94B72A0C94892BFD
:100030000C9433210C945B040C945B040C945B04CF
:100040000C945B040C945B040C945B040C945B04B4
:100050000C945B040C949B210C945B040C945B0447
:100060000C945B040C945B040C945B040C945B0494
:100070000C945B040C945B040C945B040C945B0484
:100080000C945B040C945B040C945B040C945B0474
:100090000C945B040C945B040C945B040C945B0464
:1000A0000C945B040C945B040C945B049316931601
:1000B000C516C51612173217921892187417111810
:1000C000221822188218921892188B1814191419D1
:1000D000261926191D192619261926191419141955
:1000E0002219261926192219FF24F5240D25662523
:1000F0006D256D2566256D256D252E256D253825EB
:1001000042256D256D256D256D2566256D256D2591
:1001100066256D251B256D256D25522552255225F9
:1001200052255225522552255225522568256D25E6
:10013000FF24F2246D256D256D256D256D256D251A
:100140006D256D256D256D2568256D256D2566252B
:100150006D255025502550255025502550255025DA
:10016000502550256825F62B1D2C0F2D1D2C0F2DED
:10017000692C8C2C0F2DE22CF12C03E103E2000200
:10018000E102E200294114001A00080015001700DE
:100190001C0018000C00120013002A002B000400A1
:1001A0001600070009000A000B000D000E000F00EA
:1001B00033003441E1001D001B000600190005005A
:1001C000110010003600370038002F00E000E60074
:1001D000E30028000258000000002C0001580258DB
:1001E0000358300035001E021F02200221022202A5
:1001F000230224022502260227024C0001003100BE
:100200002D002E00010001005000510052004F004F
:10021000AB0001000100010001000100010001002C
:100220000100010001000100AC000100010001001B
:100230000100AE00010000000000AD00010001005F
:100240000100005C35021E001F002000210022007A
:10025000230024002500260027002A0001000100B9
:100260000100010001000100010001000100010086
:10027000A9000100010001000100010001000100CE
:100280000100010001000100AA00010001000100BD
:100290000100010001000000000001000100010058
:1002A0000100010001003A003B003C003D003E001F
:1002B0003F004000410042004300010001000100F6
:1002C0000100010001000100010001000100010026
:1002D0006A000100010001000100010001000100AD
:1002E000010001000100010069000100010001009E
:1002F00001000100010000000000010001000100F8
:100300000100010000000000000000002A2B28006E
:1003100000000000000000000000000000000029B4
:10032000000000002C1E3420212224342627252EF4
:10033000362D3738271E1F2021222324252633332C
:10034000362E37381F0405060708090A0B0C0D0E58
:100350000F101112131415161718191A1B1C1D2F24
:100360003130232D350405060708090A0B0C0D0E44
:100370000F101112131415161718191A1B1C1D2F04
:100380003130354C0000000000000000000000008B
:10039000000000000000000000000000000000005D
:1003A000000000000000000000000000000000004D
:1003B000000000000000000000000000000000003D
:1003C000000000000000000000000000000000002D
:1003D000000000000000000000000000000000001D
:1003E000000000000000000000000000000000000D
:1003F00000000000000000000000000000000000FD
:1004000000000000000000000000000000000000EC
:1004100000000000000000000000000000000000DC
:1004200000000000000101010101010001010101C2
:1004300000000000000000000000000000000100BB
:10044000010001010101010101010101010101019D
:10045000010101010101010101010101010101008D
:10046000000001010000000000000000000000008A
:10047000000000000000000000000000000000017B
:100480000101010000047F3F1F64321464321478BC
:100490003C1E1E140A052223252628292A2C2D2F2E
:1004A0003032333536383A3B3D3E4042434547498A
:1004B0004A4C4E5051535557595A5C5E60626466BF
:1004C00068696B6D6F71737577797B7D7F818385CB
:1004D00087898A8C8E90929496989A9C9E9FA1A3CD
:1004E000A5A7A8AAACAEAFB1B3B4B6B8B9BBBCBEF1
:1004F000BFC1C2C3C5C6C7C9CACBCCCDCED0D1D26D
:10050000D2D3D4D5D6D7D7D8D9D9DADADBDBDBDC6E
:10051000DCDCDCDCDDDDDDDDDCDCDCDCDCDBDBDB1A
:10052000DADAD9D9D8D7D7D6D5D4D3D2D2D1D0CE7A
:10053000CDCCCBCAC9C7C6C5C3C2C1BFBEBCBBB97F
:10054000B8B6B4B3B1AFAEACAAA8A7A5A3A19F9EFD
:100550009C9A98969492908E8C8A89878583817FC5
:100560007D7B79777573716F6D6B696866646260A6
:100570005E5C5A5957555351504E4C4A4947454372
:1005800042403E3D3B3A3836353332302F2D2C2A0F
:10059000292826252322FFAA7F55400001010101B9
:1005A000010101010102020202020202020203032E
:1005B00003030303030304040404040404050505FE
:1005C00005050606060606070707070708080808C0
:1005D000090909090A0A0A0B0B0B0C0C0C0D0D0D6D
:1005E0000E0E0E0F0F0F1010111111121213131403
:1005F00014151516161717181819191A1A1B1B1C7B
:100600001D1D1E1E1F2020212222232424252626D4
:10061000272829292A2B2C2D2D2E2F303132323309
:100620003435363738393A3B3C3D3E3F4041424312
:100630004445464748494A4C4D4E4F5051535455F6
:100640005658595A5B5D5E5F616264656668696BA6
:100650006C6D6F7072737577787A7B7D7E80828324
:100660008587888A8C8E8F91939596989A9C9EA068
:10067000A2A3A5A7A9ABADAFB1B3B5B7BABCBEC075
:10068000C2C4C6C9CBCDCFD1D4D6D8DBDDDFE2E43E
:10069000E7E9EBEEF0F3F5F8FAFDFF0403300000B4
:1006A0000010034D0069006E006900560061006E85
:1006B0000000002203540068006500560061006ECF
:1006C0000020004B006500790062006F006100723D
:1006D000006400730000000403090409023B0002E7
:1006E0000100A032090400000103010100092111E9
:1006F0000100012240000705810308000A090401E6
:1007000000010300000009211101000122C00007BF
:1007100005820320000A1201100100000008AEFE4D
:10072000478801000102030105010902A1018502B8
:100730000901A100050919012905150025019505E3
:1007400075018102950175038101050109300931A7
:100750001581257F95027508810609381581257F49
:10076000950175088106050C0A38021581257F95CB
:100770000175088106C0C005010980A10185031A21
:1007800081002A830016010026030095017510815F
:1007900000C0050C0901A10185041A01002A9C0270
:1007A000160100269C02950175108100C005010903
:1007B00006A1018505050719E029E7150025019522
:1007C00008750181020507190029EF15002501951B
:1007D000F07501810205081901290595057501913A
:1007E00002950175039101C005010906A1010507E4
:1007F00019E029E715002501950875018102950189
:10080000750881010507190029FF150026FF0095CD
:1008100006750881000508190129059505750191DE
:1008200002950175039101C011241FBECFEFDAE0DC
:10083000DEBFCDBF04B603FE27C080917002909149
:100840007102A0917202B09173028730904BA74061
:10085000B04BD1F410927002109271021092720299
:100860001092730214BE84B7877F84BF0FB6F894CA
:10087000A89580916000886180936000109260006C
:100880000FBEE0E0F8E3099511E0A0E0B1E0E4EC90
:10089000FBE502C005900D92A236B107D9F722E020
:1008A000A2E6B1E001C01D92A037B207E1F70E94B5
:1008B000D9270C94E02D0C9400000C94250B0C947B
:1008C000260B0C9465040C94BD04CF93FB01C281EC
:1008D000CC2349F088309D4579F48FE791E00E9460
:1008E0008905C0E009C088309D4529F48AE791E078
:1008F0000E94890501C0C1E08C2FCF9108951F93FC
:10090000CF93DF93162FC2E5D2E09E0140E060E076
:1009100080E00E94050D239682E0CB35D807A9F729
:1009200011FF07C022E532E040E060E08FEF0E9457
:10093000050D12FF07C025E532E04FEF6FEF80E0B5
:100940000E94050D13FF07C028E532E040E06FEF7D
:100950008FEF0E94050DDF91CF911F910C94760DC2
:100960000E942E13482F6091ED017091EE0180914D
:10097000EF019091F0010C947F040E942E13482FF8
:100980006091ED017091EE018091EF019091F00185
:100990000C947F04CF92DF92EF92FF926B017C0167
:1009A0000E942E13482FC701B6010E947F04C70181
:1009B000B601FF90EF90DF90CF90089581E0089509
:1009C0001F93CF93DF9300D000D01F92CDB7DEB737
:1009D00049835A832091960189819A81211112C0FD
:1009E000662349F00E94601E182F682F89819A8122
:1009F0000E94051E03C00E94341E182F69817A814F
:100A0000812F04C00E94601E69817A810F900F902F
:100A10000F900F900F90DF91CF911F910C947F0852
:100A2000FC01408151816281738184810C94E004D6
:100A30001F93CF93DF93282F30E0F901EC5FFC4F39
:100A40001491F901EC5FFB4FE491C1E0E11101C0A9
:100A5000C0E0F901EC57FC4F2491D1E0211101C015
:100A6000D0E0CC2319F081EE0E949F14DD2319F011
:100A700086EE0E949F14812F0E944016DD2319F0FC
:100A800086EE0E94D815CC2331F081EEDF91CF9114
:100A90001F910C94D815DF91CF911F9108950F935A
:100AA0001F93CF93DF93EC01062FFE0184918823DF
:100AB00059F19E012F5F3F4F813041F4E901F90167
:100AC0001491812F0E949F14812F0DC0823031F428
:100AD000E901F90184910E949F140AC0833031F426
:100AE000E901F90184910E94D81502C00E941805FD
:100AF0002196802F8823C9F2EFE9FFE03197F1F7C3
:100B000000C000008150F6CFDF91CF911F910F916F
:100B1000089560E00C944F050E94901F811102C05F
:100B20000E9430200C945D040C945F0481E00895D1
:100B30000C949605CF93C82F0E9463048C2F0E94BB
:100B40009805CF91089508950E9404190E94A30565
:100B50002FEF84E39CE0215080409040E1F700C0FB
:100B600000000C94C1210F931F93CF93DF938C014E
:100B70000E941005EC01B8010E946104882309F469
:100B8000B4C2B801CE010E94E812882309F4ADC2B4
:100B9000CB3CFCE5DF0741F4F8018281882309F4AE
:100BA000A4C20E94540DA1C2CC3C8CE5D80708F029
:100BB000D7C1C33C9CE5D90761F4F8018281882341
:100BC00009F493C20E94E01E8272F1F00E9451115A
:100BD0008CC2C43CECE5DE07D0F0F8018281C73C52
:100BE000FCE5DF0709F491C108F0A1C1C53CECE5C3
:100BF000DE0709F490C108F094C1882309F475C296
:100C00000E94E01E827211F30E9444116EC2C6312E
:100C1000FCE5DF0708F042C1C2308CE5D80708F4D4
:100C200019C1F8018281882309F41BC10E94901F19
:100C3000811102C00E9430200E94A31F9093620283
:100C400080936102C031FCE5DF0709F4C3C008F0FE
:100C500041C0C8309CE5D90709F49AC0F0F4C4300B
:100C6000FCE5DF0709F487C068F4C2309CE5D907CA
:100C700009F477C0C330DC4509F0E3C0809161021C
:100C8000826076C0C630FCE5DF0709F46EC008F06C
:100C90007BC08091610288606BC0CC309CE5D90735
:100CA00009F485C068F4CA30FCE5DF0709F474C0B4
:100CB00008F079C00E94041980916102806858C0D0
:100CC000CE309CE5D90709F476C008F07FC080914A
:100CD00061028BC0CB3FFCE5DF0709F44FC018F57C
:100CE000C3319CE5D90709F47DC078F4C131FCE536
:100CF000DF0709F473C0C231DC4509F0A2C00E94CD
:100D00000419809161028F7733C0C5319CE5D90702
:100D100009F472C008F486C0CA3FDC4509F091C0EE
:100D2000809162023EC0CF3F8CE5D80709F45FC0D6
:100D300058F4CD3FECE5DE0709F444C008F43FC0A9
:100D40008091620282602DC0C1308DE5D80709F420
:100D500075C008F45DC0C230DD4509F072C080E0A6
:100D60006EC080916102816003C0809161028061E8
:100D70008093610266C08091610211C0809162021D
:100D80008260809362025DC0809161028062F0CFD8
:100D9000809161028064ECCF809161028860846000
:100DA000E7CF8160EECF809161028E7FE1CF8091AD
:100DB00061028D7FDDCF80916102877FD9CF8091E5
:100DC000620218C0809162028D7FDBCF8091610248
:100DD0008F7ECECF809161028F7DCACF80916102DC
:100DE0008F7BC6CF80916102877F8B7FC1CF80913F
:100DF00062028D7F8E7FC5CF8091610282FB2227A8
:100E000020F991E0922790FB82F990FB83F9B0CF13
:100E100080916202982F909591708E7F892B90FB24
:100E200081F9AFCF0E9404198091610287FB2227CC
:100E300020F991E0922790FB87F99ACF81E00E94F8
:100E4000322080916102909162020E94B41F0E9440
:100E500004194BC1C1159CE5D90751F0C130DC45DF
:100E600079F0C801DF91CF911F910F910C94DE04AE
:100E7000F8018281882309F438C10E94A40535C194
:100E8000F8018281882309F430C180911A02982FD9
:100E9000909590FB80F980931A0227C1C631FCE53A
:100EA000DF0739F50E94E01E282FF801828140916A
:100EB000100150911101882379F02A7A91E009F408
:100EC00090E090936201911102C069E201C065E374
:100ED000CA010E949C200AC080916201811102C057
:100EE00069E201C065E3CA010E94A7200E942C1F8D
:100EF000FCC0C23CDC4509F0B4CFF80182818823F4
:100F000009F4F3C00E945F11F0C0882309F4EDC01A
:100F10000E94ED0EEAC0882309F4E7C00E94D10EBA
:100F2000E4C0882309F4E1C00E94DE0EDEC0C93CA3
:100F30009CE5D90731F4882309F4D7C00E940B0F30
:100F4000D4C0CA3CDC4530F4882309F4CEC00E94EA
:100F5000FC0ECBC0882309F4C8C00E941A0FC5C07C
:100F6000C33DFCE5DF0749F4F8018281882309F4D9
:100F7000BCC088E10E945411B8C0C43D8CE5D807BC
:100F800008F069C0F8018281CF3CFCE5DF0771F40D
:100F9000882309F4AAC00E944C0D863028F00E94D4
:100FA0004C0D883008F430CE86E0E4CFC03D9CE59F
:100FB000D90700F5CD3CECE5DE0729F4882309F4D8
:100FC00094C081E0D7CFCE3CDC4530F4882309F4CF
:100FD0008CC00E94650D89C0882309F486C00E94D8
:100FE0004C0D823028F00E944C0D853008F40CCE58
:100FF00082E0C0CFC13D9CE5D90771F4882309F494
:1010000074C00E944C0D8F3028F00E944C0D84312A
:1010100008F4FACD8FE0AECFC23DDC4570F48823F2
:1010200009F463C00E944C0D893028F00E944C0DD9
:101030008E3008F4E9CD89E09DCF882309F455C0AE
:101040000E944C0D853128F00E944C0D873108F428
:10105000DBCD85E18FCFCD3DFCE5DF0749F4F8011D
:101060008281882309F441C082E00E947A283DC031
:10107000CE3D8CE5D80738F5C53D9CE5D90731F460
:10108000F8018281882389F183E274CFC53DECE5C4
:10109000DE0778F4F8018281882339F10E944C0D33
:1010A000893128F00E944C0D823208F4ADCD89E1DF
:1010B00061CFCC3DDC4509F0D4CEF8018281882394
:1010C000A1F080E0D2CFCE3D8CE5D80739F4F8010D
:1010D0008281882351F00E94302007C0CE018A5FB0
:1010E0009C45099708F49DCDBCCE80E0DF91CF915F
:1010F0001F910F91089580E090E0089508959CE07D
:10110000799FF001112490E3899FE00DF11D1124D6
:10111000E60FF11DEE0FFF1FEC57FE4F85919491E6
:101120000895880F991FFC01EC57FB4F859194910E
:101130000895CF93DF930E947F080E944E0AEC012E
:10114000811520E59207F0F5811530E4930708F04A
:1011500024C1883E910500F5803E910508F09AC1B2
:10116000883A910570F4853A910508F09FC0813066
:10117000910509F48FC108F440C1049708F08AC1B1
:101180003CC18F3B910508F49CC0803C910508F45C
:1011900034C1805C9109F4C0811540E2940758F491
:1011A000C11581E0D80708F075C1C03FD10508F42A
:1011B00024C1D0656FC1811520E3920708F0E4C017
:1011C0009F70DEC0811535E5930708F044C0811596
:1011D00044E5940708F0F8C0C11582E5D80708F582
:1011E000C11521E5D20708F0DBC08C2F837021E008
:1011F00030E002C0220F331F8A95E2F73C68CE012F
:1012000074E0969587957A95E1F78370382BCF70C7
:10121000C695C69580E2C89FE0011124C22BD32B4E
:1012200039C12C2F26952695CE0183709927C1159B
:10123000D34508F0BAC040E2249F90011124C1E0D8
:10124000D0E002C0CC0FDD1F8A95E2F72C2B3D2B9E
:10125000E901DC681FC1811549E59407A0F4C115B7
:1012600088E5D80708F0B5C0C11526E5D20708F013
:10127000C4C08C2F0E94E20A8F71C82FD0E0DC2FEF
:10128000CC27D06207C181153AE5930708F4A6C0C0
:1012900090568115904208F0B0C08D2F8F710E943A
:1012A000E20ADD27D0628F71D82BF4C0853A910510
:1012B00009F4A6C0863A910509F0A5C0C2E8D0E4B9
:1012C000E9C0883A910509F4A1C0893A910509F469
:1012D000A0C08A3A910509F49FC08B3A910509F4A0
:1012E0009EC08C3A910509F49DC08B3B910509F491
:1012F0009CC08C3B910509F49BC08D3A910509F483
:101300009AC0803B910509F499C08E3A910509F481
:1013100098C08F3A910509F497C0813B910509F473
:1013200096C0823B910509F495C0833B910509F471
:1013300094C0843B910509F493C0853B910509F461
:1013400092C0863B910509F491C0873B910509F451
:1013500090C0883B910509F48FC0893B910509F441
:101360008EC08D3B910509F48DC08E3B910509F42B
:101370008CC08A3B910509F48BC0C0E0D4E48AC0DC
:101380000E949108EC0186C09927D3FF03C0EC01AD
:10139000D86C80C0EC01D06C7DC0DF70D06A7AC0A0
:1013A000DC2FCC27C16FD06A75C040E2249F90012A
:1013B0001124C1E0D0E002C0CC0FDD1F8A95E2F716
:1013C000C22BD32BDA6866C0D82FCC27C46FD06A63
:1013D00061C0DC2FCC27C06FD06A5CC08F700E94C8
:1013E000E20A94E0D695C7959A95E1F7CF70D0E0E0
:1013F000DC2FCC27D069C82B4DC0C0E0D0E04AC05C
:10140000C1E8D0E447C0C3E8D0E444C0C2EED4E4AD
:1014100041C0C9EED4E43EC0CAEED4E43BC0C5EB43
:10142000D4E438C0C6EBD4E435C0C3EBD4E432C056
:10143000C4EBD4E42FC0C7EBD4E42CC0CCECD4E490
:1014400029C0CDECD4E426C0C3E8D5E423C0CAE863
:10145000D5E420C0C2E9D5E41DC0C4E9D5E41AC072
:10146000C1E2D6E417C0C3E2D6E414C0C4E2D6E4B5
:1014700011C0C5E2D6E40EC0C6E2D6E40BC0C7E296
:10148000D6E408C0CFE6D4E405C0C0E7D4E402C087
:10149000CAE2D6E4CE01DF91CF910895823891055A
:1014A00069F1B0F48133910509F46DC048F48932D3
:1014B000910509F463C08A32910509F469C0089561
:1014C0008533910509F455C089339105B9F0089524
:1014D000833E910569F138F4803E9105B1F0823E7A
:1014E000910509F10895863E9105A9F1873E910580
:1014F000B9F1843E910509F064C023C020916102D6
:1015000020FD4FC021FD4DC008958091610280FDF6
:1015100044C08091620280FF44C08091610284FDDA
:1015200042C083EE4DC08091610282FF38C0F5CF8A
:101530008091610282FD33C08091620280FD31C0E2
:10154000ECCF8091620281FF32C08091610284FD04
:101550002AC087EE35C08091610283FF26C0F5CF97
:101560008091610283FD21C08091620281FD1FC0D4
:10157000ECCF8091610285FD1CC01DC0809161028D
:1015800085FD19C016C08091610286FD16C017C086
:101590008091610286FD13C010C089E311C082EE04
:1015A0000FC080EE0DC080E00BC086EE09C084EE57
:1015B00007C089E205C085E303C08AE201C081E378
:1015C00090E008959091610292FF0DC0282F28713C
:1015D000283019F4877F846006C0282F24712430B6
:1015E00011F48B7F886093FF0DC0282F287128315C
:1015F00019F4877E846106C0282F2471243111F4E8
:101600008B7E88612091620220FF0DC0382F3871D7
:10161000383019F4877F816006C0382F317131303E
:1016200011F48E7F886021FF0DC0282F287128318A
:1016300019F4877E816106C0282F2171213111F4B0
:101640008E7E886194FD877E089508950895E82F21
:10165000F0E0EE0FFF1FED59FE4F8081918108955C
:101660000895AFE2B1E041E050E024E02A0F8D910F
:10167000E82FE295EF70F0E031A18F70BA0102C05F
:10168000660F771F8A95E2F7CB01962F90959323EB
:1016900091A392A1892B82A32A13E9CFA3E2B1E0FF
:1016A00041E050E02CE02A0F8D91E82FE295EF7099
:1016B000F0E031A18F70BA0102C0660F771F8A95E2
:1016C000E2F7CB01962F9095932391A392A1892BBA
:1016D00082A32A13E9CF10926C0110926B01109231
:1016E00064011092630110926E0110926D011092CC
:1016F0006601109265011092700110926F011092B4
:10170000680110926701109272011092710110929B
:101710006A011092690184E00E94270C0C948C05E8
:101720005F926F927F928F929F92AF92BF92CF9271
:10173000DF92EF92FF920F931F93CF93DF930FE20D
:1017400011E0ABE6B1E0612CEE24E394F12C5D01F5
:101750008D909C90119711961C921E92E801899190
:101760008E01E82FE295EF70F0E091A18F70A70154
:1017700001C0440F8A95EAF7892F842B81A382A1A7
:10178000542E5094852182A3D0EADA95F1F783E2B2
:10179000C82E81E0D82E80E090E0E60179906E01BD
:1017A000272D22952F7030E0E90168A12D913C9101
:1017B000119770E0D72DDF7002C075956795DA95A7
:1017C000E2F760FD08C0B701082E02C0660F771F60
:1017D0000A94E2F702C060E070E0262B372B1196E6
:1017E0003C932E9301968C309105B9F681A1D52DAD
:1017F000D823D1A382A1482B42A3129681E0F50100
:10180000208131818216930609F480E0682AF1E094
:10181000A337BF0709F09BCF262D44E063E671E0B4
:101820008BE691E00E94280C0E949405862DDF91A2
:10183000CF911F910F91FF90EF90DF90CF90BF90CD
:10184000AF909F908F907F906F905F9008950895D4
:10185000FF920F931F93CF93DF93F82E092F162F2C
:10186000D72FC42F222349F081E0809375010E9475
:101870006521909374018093730180917501882391
:10188000D9F080917301909174010E9471210697A3
:1018900098F0EF2DF02FA12FBD2F80E090E04C2F7E
:1018A00050E08417950734F4219131912D933D93A5
:1018B0000196F7CF10927501DF91CF911F910F9193
:1018C000FF900895AF92BF92CF92DF92FF920F9355
:1018D0001F93CF93DF93D62E372FE82FF0E07111AF
:1018E00006C0E556FA4F6491762F862F75C0C72F34
:1018F000D0E0E556FA4F2491F22E022F10E046E098
:10190000649FC0011124EFEFF0E0BF010E94512D50
:10191000AB016BEA6403C001659F900D11248D0D2E
:10192000911D8D0D911D982F990F890FDF01AC1B13
:10193000BD0B0A9FB0010B9F700D1A9F700D1124F3
:10194000972F839FD0011124AB2FBB276F01CA1A99
:10195000DB0A0C9DD0010D9DB00D1C9DB00D112416
:101960005F01A81AB108AC9E6001AD9ED00CBC9E70
:10197000D00C1124CD2DDD27EC1BFD0B0E9FE001BB
:101980000F9FD00D1E9FD00D1124ED2F4230510519
:1019900091F04CF441155105E1F041305105B9F495
:1019A000E22F2B2F16C04430510569F044F0463029
:1019B000510579F00CC0E22F272F9D2F0AC0272F49
:1019C0009F2DEB2F06C0E72F922F2D2F02C0E72F60
:1019D0009B2F6E2F722F892FDF91CF911F910F9127
:1019E000FF90DF90CF90BF90AF9008950895CF9370
:1019F000DF93762FE901682F842F0E94620C798390
:101A000068838A83DF91CF910895F9018183608390
:101A10004283089580914D02282F269530E02115AC
:101A2000310519F48170826005C02532310524F03A
:101A30008170886480934D02089588E090E00C9452
:101A4000A02DCF93DF9300D000D0CDB7DEB7AB0190
:101A5000BC0149835A836B837C830E940A0D4981B0
:101A60005A816B817C8188E090E00F900F900F90FD
:101A70000F90DF91CF910C94BE2DEDE4F2E083E066
:101A8000808311828FEF82838383148260817181CE
:101A9000828193810C94210D80914D0280FF02C0C0
:101AA0008695089580E0089580915102833018F45E
:101AB0008F5F8093510260914D0270914E02809130
:101AC0004F02909150020C94210D80915102882375
:101AD00019F081508093510260914D0270914E0235
:101AE00080914F02909150020C94210D609104015D
:101AF00070E080914D0280FF0AC080917A0123E05E
:101B0000829FC00111248E5A9D4F0C9478128091AF
:101B1000790190910301891780F7E82FF0E09F0188
:101B2000220F331FE20FF31FEE5AFD4F1182108276
:101B300012828F5FF0CF90914D0290FF16C090916E
:101B4000790120910301921770F4E92FF0E0DF0191
:101B5000AA0FBB1FEA0FFB1FEE5AFD4F8183608364
:101B600042839F5FF0CF0C94760D0895CF93DF935F
:101B700000D01F92CDB7DEB790914D0290FF0AC002
:101B80009E012F5F3F4F0E94F70C4B8169818A8134
:101B90000E949B0D0F900F900F90DF91CF910895B1
:101BA000CF93DF93EC01EC81F0E0EA56FB4F4491D8
:101BB000EDE4F2E0628181810E94B60D8C818F5F3D
:101BC0008C83DF91CF910895CF93DF93EC01EDE407
:101BD000F2E0438162818C810E94B60D8C818F5F1F
:101BE0008C83DF91CF9108950F931F93CF93DF9351
:101BF00000D01F92CDB7DEB78C01809176018111A4
:101C00000AC09E012F5F3F4F4FEF6FEF0E94F70C0E
:101C10008A8180937601F8018481813051F028F027
:101C2000823061F4409176010AC08091760140E0F3
:101C300007C06091760140E080E003C040E080E0B2
:101C400060E00E949B0DF801248130E0C9010196FB
:101C500063E070E00E94652D84830F900F900F90D9
:101C6000DF91CF911F910F910895AF92BF92CF92C4
:101C7000DF92EF92FF920F931F93CF93DF9300D0E9
:101C80001F92CDB7DEB7182FF62E042FE22E9091BB
:101C90004D0290FF6EC0E92FE695AE2FB0E0AD5C2F
:101CA000BE4F8C91809382019E7F923061F49E01A1
:101CB0002F5F3F4F812F0E94F70C4B8169818A81F2
:101CC0000E949B0D44C0823019F4009150023FC025
:101CD000863019F410914E023AC08930D9F3893117
:101CE000B1F5E9518E2F8170D82EE695F0E0EA56D5
:101CF000FA4FA590B490C12CBB2460910201C61686
:101D000020F5EC2DF0E0EA9DC001EB9D900DFA9DD1
:101D1000900D112470E00E94512D812FD11002C02E
:101D2000860F01C0861B90917901E90FF11D9F017B
:101D3000220F331FE20FF31F9F012E5A3D4F402FFA
:101D40006F2D0E94F70CC394D8CF0E94760D10938C
:101D50004E02F0924F0200935002EE2051F060913B
:101D60004D0270914E0280914F02909150020E945C
:101D7000210D0F900F900F90DF91CF911F910F9138
:101D8000FF90EF90DF90CF90BF90AF900895EDE47B
:101D9000F2E09181282F4381628188E0890F0C94C1
:101DA000350E81E00C94C70EEDE4F2E09181282F0E
:101DB0004381628188EF890F0C94350E81E00C9489
:101DC000D40EEDE4F2E0628121E1620F08F46FEFDE
:101DD000282F438181810C94350E81E00C94E10E13
:101DE000EDE4F2E0628121E1621B08F460E0282F5B
:101DF000438181810C94350E81E00C94F00EEDE46A
:101E0000F2E0438121E1420F08F44FEF282F628175
:101E100081810C94350E81E00C94FF0EEDE4F2E02C
:101E2000438121E1421B08F440E0282F6281818137
:101E30000C94350E81E00C940E0F20E00C94350EBE
:101E4000FF920F931F93CF93DF93EC01F12C0FEFD1
:101E500010E060910201F616E8F42091790130E07B
:101E60002F0D311DC901880F991F280F391F2E5AB8
:101E70003D4F70E0C8010E94652D962F8C814091E6
:101E8000500260914F02F99E800D11240E94F70CC0
:101E9000F394DFCF0E94760D9A818C8190FF02C06F
:101EA0008F5F01C081508C83DF91CF911F910F9183
:101EB000FF900895AF92BF92CF92DF92EF92FF9280
:101EC0000F931F93CF93DF93FC01828180FF02C0A9
:101ED0000FEF01C001E010E043E0A42E8091020169
:101EE000181708F043C0C12ED12C80917901E6016A
:101EF000C80FD11DCE01880F991FC80FD91FCE5A08
:101F0000DD4F198218821A8234E0E32EF12CB12CB5
:101F1000809178018B0D84302CF06A2D0E94432D26
:101F2000892F05C087FF03C090910201890F082EF9
:101F3000000C990BC816D90691F4809150028E9D21
:101F4000A0018F9D500D11245595479555954795A6
:101F50009E0160914F0280914E020E94F70CB00EDC
:101F6000F1E0EF1AF108A1F61F5FB8CF0E94760DDD
:101F700080917801013031F4811102C08091020119
:101F8000815007C090E001966091020170E00E94CC
:101F9000652D80937801DF91CF911F910F91FF9074
:101FA000EF90DF90CF90BF90AF900895CF93809146
:101FB000790190910301891770F4E82FF0E09F01F7
:101FC000220F331FE20FF31FEE5AFD4F11821082D2
:101FD00012828F5FF0CFC0E060910201C617B8F5A2
:101FE000EC2FF0E070E0CF010E94652D4091790167
:101FF000480F80917701082E000C990B50E0E817EC
:10200000F907C4F020910101022E000C330B2E17AA
:102010003F0784F09A01220F331F240F351F2E5AD9
:102020003D4F4091500260914F0280914E020E94BC
:10203000F70C0BC0FA01EE0FFF1F4E0F5F1FFA01E6
:10204000EE5AFD4F118210821282CF5FC5CF0E94DF
:10205000760D2091000180917701820F80937701A6
:1020600090910101920F9093010119165CF4082ED2
:10207000000C990B4091020150E041505109841726
:1020800095071CF0219520930001CF9108950F939F
:102090001F93CF93DF938C01FC018481958101967E
:1020A0008170992795838483C0E0D5E580910201F2
:1020B000C817F8F42091790130E02C0F311DC901C7
:1020C000880F991F280F391F2E5A3D4F4C2F4695C8
:1020D000F80184819581840F911D81704091500297
:1020E00060914F028D9F802D11240E94F70CCF5FCD
:1020F000DDCFDF91CF911F910F910C94760D0F934F
:102100001F93CF93DF93EC0100E010E08091020178
:10211000282F30E00217130724F5909179019801D8
:10212000290F311DA901440F551F240F351F2E5AA9
:102130003D4F869590E04C81081719071CF4442305
:1021400031F002C0411103C04091500201C040E093
:1021500060914F0280914E020E94F70C0F5F1F4F5B
:10216000D5CF0E94760D2C8130E02F5F3F4F21703C
:1021700033272C83DF91CF911F910F910895EDE4C8
:10218000F2E080818E7F8083608171818281938182
:102190000E94210D109283012FEF80E792E02150E1
:1021A00080409040E1F700C000000C94760DEDE413
:1021B000F2E080818E7F8083109283012FEF80E791
:1021C00092E0215080409040E1F700C000000C9464
:1021D000760D60914D02669570E04BE050E085E031
:1021E00091E00E948B2D892B19F481E0809383016B
:1021F0000E94652190937C0180937B0108959091CA
:102200004D0290FF35C09170811102C0926006C0EE
:10221000853210F0986402C0880F982B90934D027D
:10222000662351F060914D0270914E0280914F02F1
:10223000909150020E94210D60914D02669570E0D0
:102240004BE050E085E091E00E948B2D892B19F046
:102250001092830102C00E94E91081E080937E0108
:102260004091500260914F0280914E020C941D0FDC
:102270000895682F90914D02969581E0890F8532DF
:1022800008F081E00C94FF1081E00C943911682F64
:1022900090914D0296958FEF890F09F484E20C948A
:1022A000FF1081E00C94471161E00C94FF10EDE405
:1022B000F2E080818160808386950C945411809136
:1022C0004D0280FD0C94BF100C94571160E00C94EB
:1022D000FF1080918101811133C080911A028160C9
:1022E00080931A020E94901F811104C00E94302026
:1022F0000E943D0D0E941D0D60934D0270934E0291
:1023000080934F02909350026E7F61F40E943D0DC6
:102310000E941D0D60934D0270934E0280934F02F8
:10232000909350020E940A0D1092830180914D02F9
:1023300080FF03C086950E94661181E08093810131
:102340000895EDE4F2E080818160808386950C94AD
:1023500066111092830108950F931F93CF93DF931B
:1023600080918301882309F48CC080918201E091DF
:102370004D02E695E81BE0937D01823049F4F0E0E0
:10238000EE56FB4FE491CE2FD0E000ED1DE049C0AA
:10239000863049F4F0E0E157FB4FE491CE2FD0E0D6
:1023A00004EE1DE03EC0893051F4E695F0E0E457BC
:1023B000FB4FE491CE2FD0E000E21FE032C08F301F
:1023C00051F4E695F0E0E757FB4FE491CE2FD0E0D3
:1023D0000AE51FE026C0853149F4F0E0EA57FB4FDB
:1023E000E491CE2FD0E006ED1FE01BC0883181F0D4
:1023F000833239F4E4E8F4E0C591D49104EF1DE0B0
:1024000010C0843251F4C4EFD1E00FE710E109C0ED
:10241000C8EED3E007E410E104C0C0EDD7E006EF5A
:102420001CE080917E01882389F010927E010E9439
:1024300065219E0120953095820F931F90937C011A
:1024400080937B011092800110927F0180917B012B
:1024500090917C010E9471218C179D0790F0E09172
:102460007B01F0917C01CE0FDF1FD0937C01C093E4
:102470007B018BE791E0F801DF91CF911F910F91E4
:102480000994DF91CF911F910F9108952BB1342FB3
:10249000309523233BB1432B3FB7F894FC01680FE1
:1024A000791FE617F70789F0819198E04BB9000092
:1024B00000C087FF2BB9880F000000C000C000C01B
:1024C0002BB900C09A9591F7ECCF3FBF08952AB180
:1024D000242B2AB99B01220F331F620F731F0E9406
:1024E000461287EC90E00197F1F700C000000895D4
:1024F00041E00C9467120F931F93CF93DF93C62F85
:10250000D42F022FFC0182818823C9F060938601B9
:102510000E946521909385018093840180E28C0F55
:10252000883008F050C0C77081E001C0880FCA959C
:10253000EAF7DF91CF911F910F910C9453161091F0
:102540008601161330C080918401909185010E940C
:1025500071218F3A910538F5C0E2CD0F1D17B9F002
:1025600080E2810F883040F4177081E001C0880F4D
:102570001A95EAF70E945A16C83048F481E09D2F58
:10258000977001C0880F9A95EAF70E945316802F22
:102590000E944016C830B8F4D77081E001C0880F9F
:1025A000DA95EAF70AC080E28C0F883060F4C770D1
:1025B00081E001C0880FCA95EAF7DF91CF911F91A2
:1025C0000F910C945A16DF91CF911F910F9108959E
:1025D0009C01CB01233F4CE53407F9F078F4283D0A
:1025E000FCE53F07B9F0293D4CE5340711F1273DE3
:1025F0003C4531F526E241EE61EE1EC0253FFCE58B
:102600003F0799F070F0263F3C45D1F427E245EEB4
:1026100066EE12C027E245EE0EC026E241EE60EE05
:102620000BC027E245EE64EE07C026E241EE62EE03
:1026300003C028E241E065EE0E947B1280E008952D
:10264000FC018281882319F010928601089581E0AF
:10265000089590938C0180938B010895E0918B01F4
:10266000F0918C01309721F00190F081E02D0994D8
:1026700080E00895E0918B01F0918C01309799F002
:1026800020912201222359F02091610227FF07C0E7
:10269000DC012C9111962C93119725E02C9302804C
:1026A000F381E02D09940895E0918B01F0918C0164
:1026B000309739F022E0DC012C930480F581E02D85
:1026C000099408952091890130918A018217930716
:1026D00071F090938A0180938901E0918B01F091D0
:1026E0008C01309721F00680F781E02D0994089540
:1026F00020918701309188018217930771F09093A0
:10270000880180938701E0918B01F0918C013097D3
:1027100021F00084F185E02D0994089585B7806843
:1027200085BF85B7806885BF0895089508950C9486
:1027300096130C94B0040E948E130E9495130C946F
:10274000971381E008950E945C210E94310B0E9442
:10275000E5210E9469110C9499134F925F927F9228
:102760008F929F92AF92BF92CF92DF92EF92FF92A1
:102770000F931F93CF93DF93CDB7DEB72A970FB692
:10278000F894DEBF0FBECDBF0E94900B0E94A11334
:10279000811111C08FEF89838A831B820E9465217A
:1027A0008160782F9D838C8349815A816B818D81D3
:1027B0000E946B1457C09EE8C92E91E0D92E00E00C
:1027C00010E0AA24A394B12C702E802F0E94270B16
:1027D0004C01F601419051906F0148265926411451
:1027E000510431F40F5F1F4F0430110569F7D2CF48
:1027F00080911A0281FD0E94300B20E030E07501CB
:10280000022E02C0EE0CFF1C0A94E2F7C7018421DD
:102810009521892B09F12E837F828E209F2091E0C4
:10282000892809F490E098870E9465218160782FBB
:102830009A8789874E815F8168858A850E946B149B
:10284000000F111FF801E257FE4F80819181E826A9
:10285000F926F182E08206C02F5F3F4F2C30310510
:1028600071F6C0CF0E94772310918D010E942E1324
:102870001817D9F00E942E1380938D012A960FB657
:10288000F894DEBF0FBECDBFDF91CF911F910F91A6
:10289000FF90EF90DF90CF90BF90AF909F908F9080
:1028A0007F905F904F900C949A052A960FB6F894FB
:1028B000DEBF0FBECDBFDF91CF911F910F91FF9073
:1028C000EF90DF90CF90BF90AF909F908F907F90D0
:1028D0005F904F900895CF93DF93CDB7DEB72B97DE
:1028E0000FB6F894DEBF0FBECDBF4F835887698700
:1028F0007A878B87DE01119686E0FD0111928A9519
:10290000E9F785E0FE01379601900D928A95E1F78F
:1029100049815A816B817C818D819E810E94D61B69
:102920002B960FB6F894DEBF0FBECDBFDF91CF91CF
:102930000895FC01808191810E94A11E0895CF938A
:10294000DF931F92CDB7DEB7882309F42DC1682F1E
:102950008238C1F40E942E1381FD26C169E3809163
:102960001001909111010E949C200E942C1F2FEFBA
:1029700081EE94E0215080409040E1F700C00000DB
:1029800069E319C0833811F50E942E1380FD0CC134
:1029900063E580911001909111010E949C200E949A
:1029A0002C1F2FEF81EE94E0215080409040E1F702
:1029B00000C0000063E580911001909111010E9418
:1029C000A7200F90DF91CF910C942C1F8438C1F475
:1029D0000E942E1382FDE8C067E48091100190915F
:1029E00011010E949C200E942C1F2FEF81EE94E089
:1029F000215080409040E1F700C0000067E4DBCF49
:102A00008CEF860F813A70F4862F69830E948025AF
:102A100069818111C9C080911001909111010E94BA
:102A20009C20CFCF80E2860F883048F4677081E029
:102A300001C0880F6A95EAF70E94E31EC2CF8BE5BA
:102A4000860F833088F4653A29F0663A31F083E8DE
:102A500090E005C081E890E002C082E890E00F902D
:102A6000DF91CF910C94621388E5860F873108F0CF
:102A700091C0683A09F445C0693A09F445C06A3A18
:102A800009F445C06B3A09F445C06C3A09F445C0F5
:102A90006B3B09F445C06C3B09F445C06D3A09F441
:102AA00045C0603B09F445C06E3A09F445C06F3A31
:102AB00009F445C0613B09F445C0623B09F445C0D7
:102AC000633B09F445C0643B09F445C0653B09F428
:102AD00045C0663B09F445C0673B09F445C0683B07
:102AE00009F445C0693B09F445C06D3B09F445C094
:102AF0006E3B09F445C06A3B09F445C080E090E0B4
:102B000044C082EE90E041C089EE90E03EC08AEE83
:102B100090E03BC085EB90E038C086EB90E035C09C
:102B200083EB90E032C084EB90E02FC087EB90E025
:102B30002CC08CEC90E029C08DEC90E026C083E89E
:102B400091E023C08AE891E020C082E991E01DC0B5
:102B500084E991E01AC081E292E017C083E292E03A
:102B600014C084E292E011C085E292E00EC086E2D9
:102B700092E00BC087E292E008C08FE690E005C0CB
:102B800080E790E002C08AE292E00F90DF91CF915F
:102B90000C947813603F40F0862F0E947F220F90A4
:102BA000DF91CF910C946C230F90DF91CF9108951A
:102BB000882309F464C0823879F40E942E1381FFBF
:102BC0005EC069E380911001909111010E949C20E8
:102BD0000E942C1F69E310C08338B1F40E942E13A9
:102BE00080FF4DC063E580911001909111010E941A
:102BF0009C200E942C1F63E580911001909111018F
:102C00000E94A7200C942C1F843879F40E942E1364
:102C100082FF35C067E480911001909111010E94FC
:102C20009C200E942C1F67E4E7CF9CEF980F913AFD
:102C300010F4682FE1CF90E2980F983050F487702D
:102C400091E001C0990F8A95EAF7892F0E94E91E49
:102C5000D9CF9BE5980F933020F480E090E00C945E
:102C6000621398E5980F973120F480E090E00C947F
:102C70007813803F20F00E94E7220C946C23089583
:102C8000CF93C82F0E949F14C93349F42FEF87EECA
:102C900093E0215080409040E1F700C000008C2F6D
:102CA000CF910C94D815882321F00E94E31E0C9438
:102CB0002C1F0895882321F00E94E91E0C942C1FDC
:102CC0000895BF92CF92DF92EF92FF920F931F93DE
:102CD000CF93DF937C01062FC72FFC01158112953E
:102CE0001F70D281D1110E94001F0E94D91E88231B
:102CF00079F0DD2369F080E2800F883048F082E0CF
:102D00000E94771F0E94D91E91E0B82EB92601C0FB
:102D1000B12CCC2EC2948FE0C822D12CF601EA5AF5
:102D2000FF4F0C94792D8C2F807FCF70882311F06A
:102D3000C295C07FDD2399F0CC2309F4CEC180E297
:102D4000800F883010F0011104C08C2F0E94E31E08
:102D500003C08C2F0E94F31E0E942C1FBEC1802F27
:102D60000E94D815CC2309F4DDC180E2800F8830A1
:102D700010F0011104C08C2F0E94E91E03C08C2F9B
:102D80000E94F91E0E942C1FCDC18C2F807FCF7016
:102D9000803211F0C295C07F002319F00130C9F0D4
:102DA00022C0DD2371F0112341F0113031F40E9473
:102DB000131F8C2B0E94191FB5C10E94131F8C2B4F
:102DC0001DC0112319F0113009F4ACC10E94221F5B
:102DD00025C0DD2321F0163008F0A4C10EC0153047
:102DE00008F0A0C11BC0DD2361F0112331F0F70111
:102DF000858180FF72C18F7085838C2F0E9453164E
:102E000091C1112359F0093309F078C1FFEF27EE82
:102E100083E0F15020408040E1F76EC18C2F0E948A
:102E20005A1680C18C2F86958695837090E0009706
:102E300019F0019761F076C1DD2321F0802F9C2FDE
:102E4000937002C080E090E00E94621376C1DD239F
:102E500021F0802F9C2F937002C080E090E00E94B0
:102E600078136BC1DD23F9F0053F51F0063F71F097
:102E7000043FA9F480915B0290915C0281600BC0D9
:102E800080915B0290915C02826005C080915B0240
:102E900090915C02846090935C0280935B02802F2F
:102EA0000E947F221EC0053F51F0063F71F0043F93
:102EB000A9F480915B0290915C028E7F0BC080919F
:102EC0005B0290915C028D7F05C080915B029091C6
:102ED0005C028B7F90935C0280935B02802F0E9448
:102EE000E7220E946C2329C18C2F837009F049C00E
:102EF000D1111FC1402F429546954770440F440F92
:102F0000602F6F70862F90E0A0E0B0E0042E04C028
:102F1000880F991FAA1FBB1F0A94D2F704FF10C085
:102F20000FE010E020E030E004C0000F111F221F6E
:102F3000331F4A95D2F7009510952095309503C020
:102F400000E010E09801C695C695C370D0E0BC01C2
:102F5000CD01602B712B822B932BC230D10559F000
:102F6000C330D10559F0219719F00E941B1DE1C013
:102F70000E94091DDEC00E942D1DDBC00E94071D9E
:102F8000D8C0DD2319F08C2F817001C0869588236D
:102F900009F4CFC0402F429546954770440F440F27
:102FA000602F6F70862F90E0A0E0B0E0042E04C088
:102FB000880F991FAA1FBB1F0A94D2F704FF10C0E5
:102FC0000FE010E020E030E004C0000F111F221FCE
:102FD000331F4A95D2F7009510952095309503C080
:102FE00000E010E09801C695C695C370D0E0BC0122
:102FF000CD01602B712B822B932BC230D10559F060
:10300000C330D10559F0219719F00E94E01D91C0FD
:103010000E94CE1D8EC00E94F21D8BC00E94411DD9
:1030200088C0CF70DD2339F08C2F0E94671D802F60
:103030000E9453167EC0802F0E945A168C2F0E9429
:10304000881D77C0023F01F128F4003F41F0013FA5
:10305000A1F03FC0033FF9F0043F39F13AC0DD234E
:1030600041F0153008F05EC08C2F8F710E94AD1DAD
:1030700059C0163008F056C0F7CFDD2339F08C2F39
:103080008F710E94671D4EC0DD23C9F38C2F8F7195
:103090000E94881D47C0DD2329F08C2F8F710E946C
:1030A000521D40C00E944D1D3DC0DD2349F0CF712F
:1030B0008C2F0E94671D63E08C2F0E94621F32C01C
:1030C00081E00E94771F123068F182E00E94771F32
:1030D00029C0DD2331F0112391F2802F0E949F142B
:1030E00021C0112399F2093349F49FEFE7EEF3E091
:1030F0009150E040F040E1F700C00000802F0E94B6
:10310000D81510C04C2F4F70602FC7010E947B084C
:103110000E947A1C12C04C2F4F70602FC7010E9472
:103120007E080BC028E0C21AD10884E0C816D1047A
:1031300020F40E942E130E949A05BB20D1F00E9419
:10314000D51E80FD16C0F70112820E94CF1E0E947C
:10315000671DC7010E94C3180E94CF1EDF91CF9147
:103160001F910F91FF90EF90DF90CF90BF900C9444
:10317000881DDF91CF911F910F91FF90EF90DF900D
:10318000CF90BF9008950F931F93CF93DF93EC01DF
:10319000888199812B813C81232BB9F09F3F11F4C9
:1031A0008F3F99F0CE010E94B305882371F06881AA
:1031B00079818A810E94AC1E8C010E94041E0E94AB
:1031C000061DB801CE010E946116DF91CF911F91BB
:1031D0000F9108950E94001F0E94101F0E942C1F33
:1031E0000E9412240E946C2380E090E00E946213EF
:1031F00080E090E00C94781380911001909111017F
:103200000E94B2200C94EA180E94F01E0C94FC1844
:10321000E92FE295EF70F0E03297EE30F105B0F46F
:10322000EA59FF4F0C94792D803F91F018F4883EB5
:1032300068F40EC0843F51F40BC0883E48F0813FD3
:1032400029F406C093FB882780F9089580E008954B
:1032500081E008950E94A11E0E9408190895CF934D
:10326000DF9300D000D01F92CDB7DEB70F900F9044
:103270000F900F900F90DF91CF910895CF93DF9330
:1032800000D000D000D0CDB7DEB726960FB6F894A8
:10329000DEBF0FBECDBFDF91CF9108951F93CF93B7
:1032A000DF93C091970116E080919801C81799F0BB
:1032B000D0E01C9FF0011D9FF00D1124E756FE4F3A
:1032C0004081518162817381848195810E943E1980
:1032D0002196C770E9CFDF91CF911F91089540915A
:1032E000C9015091CA016091CB017091CC018091CC
:1032F000CD019091CE010C943E19209197019091AF
:10330000980156E02917A9F030E0529FF001539F31
:10331000F00D1124E756FE4F7181671306C07081CE
:10332000871303C07281471306C02F5F3F4F27707A
:10333000E9CF80E0089581E008958091CE018295E3
:103340008F7009F054C08091CB01882309F44FC0DD
:1033500080919701A09198016091C9017091CA0173
:103360004091CC015091CD01B6E08A1709F43FC0DD
:1033700090E041155105C1F17F3F11F46F3FA1F17C
:10338000B89FF001B99FF00D1124E756FE4F21813F
:1033900072132AC02081621327C02281211124C008
:1033A000238134812417350710F421503109241B5F
:1033B000350B2F3A3105C0F42091CE012F702061DA
:1033C0002093CE0126E0289FF001299FF00D1124C3
:1033D000E256FE4F80818F708061808389EC91E09E
:1033E0000E94C3180C944E1901968770BECF0895A1
:1033F000AF92BF92CF92DF92EF92FF920F931F9303
:10340000CF93DF93CDB7DEB762970FB6F894DEBFE8
:103410000FBECDBF7C0185E0F701DE011D96019056
:103420000D928A95E1F7D7010C9111965C91119755
:103430001296BC9012971396CD90DC901497309111
:10344000C9014091CA018091CC019091CD010097B2
:1034500009F47DC14F3F19F43F3F09F478C1A090B2
:10346000CB01AA2009F40DC12091CE01C816D906BE
:1034700028F0F601E81BF90BCF0104C08095909568
:103480008C0D9D1D11E08F3A910588F010E0207F92
:1034900009F0BEC07C2DD98AC88A402F6B2D89893E
:1034A0000E942F1989EC91E00E94C31848C1822F15
:1034B000807F09F075C0451314C0301312C0B110DD
:1034C00010C02F7020612093CE010E946F1989ECEB
:1034D00091E00E94C3188091CE01D70115968C937C
:1034E00020C0CD2809F452C05F3F19F40F3F09F402
:1034F0004DC0B11018C040E0652F802F5A8B0E943C
:103500007D195A89882379F089EC91E00E94C318CB
:10351000E9ECF1E086E0DF011D928A95E9F70E946F
:103520006F1910E031C15F3F11F40F3F79F1B11015
:103530002DC040E0652F802F5A8B0E947D19182FD7
:103540005A89811123C00D875E878D859E850E94D3
:10355000A11E292F22952F7030E02230310524F052
:103560002430310534F05EC09F7051F0811108C0E5
:103570000BC19F7029F0F7019581907F09F404C178
:1035800090E2980F983008F04DC0FEC01B2DBB2074
:1035900009F4FAC08091CE0181608093CE01C1CF41
:1035A000451308C0301306C0B11004C08091CE018D
:1035B000D7019DC00D875E878D859E850E942A1943
:1035C000882381F1BB2071F12091CE01822F829559
:1035D0008F7090E0029774F08091C9019091CA01B8
:1035E00098878F831986DB86CA862C87CE0107963B
:1035F0000E94C31886E0F701A9ECB1E001900D929A
:103600008A95E1F70E949D190E946F1911E0BCC0D4
:10361000451761F00D875E878D859E850E942A196A
:10362000811118C0C7010E94C318F0CF3013F2CF28
:10363000B110F0CF8091CE01F7018583C7010E94C0
:10364000C31886E0E9ECF1E0DF011D928A95E9F705
:103650001A2D9AC0BB2031F32091CE01822F829582
:103660008F7090E0029734F28091C9019091CA0165
:103670009A8389831B82DD82CC822E83CE010196C0
:10368000B7CFC816D90628F0F601E81BF90BCF0111
:1036900004C0809590958C0D9D1D8F3A910550F03A
:1036A00010E07C2DD98AC88A402F6B2D89890E9411
:1036B0002F1945C01B2DBB2009F4B4CF45132EC0D4
:1036C00030132CC02091CE0120FD1FC0822F829587
:1036D0008F70D9F0D70115962C9315978F3049F03C
:1036E0008F5F982F9295907F822F8F70892B1596E0
:1036F0008C93C7010E94C31886E0F701A9ECB1E0E2
:1037000001900D928A95E1F73DC086E0F701A9ECA2
:10371000B1E001900D928A95E1F736C00D875E8782
:103720008D859E850E942A19811164CF8091CE01DA
:1037300081608093CE01C7010E94C31825C0E9ECC7
:10374000F1E086E0DF011D928A95E9F71BC0BB20FE
:1037500009F468CF0D875E878D859E850E942A19A2
:10376000182F882309F45ECF86E0F701A9ECB1E0B9
:1037700001900D928A95E1F789EC91E00E949914ED
:103780000E949D190E946F19812F62960FB6F894BE
:10379000DEBF0FBECDBFDF91CF911F910F91FF9084
:1037A000EF90DF90CF90BF90AF9008951F93CF938D
:1037B000DF93CDB7DEB72C970FB6F894DEBF0FBE00
:1037C000CDBF4F83588769877A878B879C87CE01C7
:1037D00007960E94F819882369F08F8198852A85B9
:1037E0003B85232BF1F19F3F09F063C08F3F09F028
:1037F00060C037C086E0FE013796DE011196019069
:103800000D928A95E1F76F817885EA85FB8530977F
:1038100041F17F3F11F46F3F21F12091980130E099
:10382000C9010196877099274091970150E084174C
:10383000950709F447C069837A83FD83EC8396E09A
:10384000929FD001939FB00D1124A756BE4FFE0149
:10385000319601900D929A95E1F7809398010E941C
:103860004E1916E080919701909198018917C1F146
:10387000189FC001112487569E4F0E94F819882373
:1038800079F1E09197011E9FF0011124E756FE4F58
:103890004081518162817381848195810E943E19AA
:1038A0008091970190E00196877099278093970106
:1038B000D9CF4F81588569857A858B859C850E94F3
:1038C0003E19CFCF0E9404191092980110929701CF
:1038D000E9ECF1E086E0DF011D928A95E9F7C1CFBE
:1038E0002C960FB6F894DEBF0FBECDBFDF91CF91FF
:1038F0001F910895EF92FF920F931F93CF93DF9341
:103900008C01892B09F46CC0F12CEE24E394E801BE
:103910002196F8018491843740F4843008F051C036
:10392000813081F0823019F15BC0853709F444C0E1
:10393000A8F19CE7980F903708F052C08F770E944B
:10394000D81541C00E5F1F4FFE01C49180E28C0F5D
:10395000883048F4C7708E2D01C0880FCA95EAF7E9
:103960000E94031F14C08C2F0E949F142DC00E5F55
:103970001F4FFE01C49180E28C0F883058F4C7704D
:103980008E2D01C0880FCA95EAF70E94091F0E9478
:103990002C1F1AC08C2F0E94D81516C00E5F1F4F07
:1039A000FE01C491CC2381F08FE99FE00197F1F7EC
:1039B00000C00000C150F6CF0E5F1F4FFE01F49013
:1039C00003C00E949F148E018F2D882309F49FCF7E
:1039D000EFE9FFE03197F1F700C000008150F5CF2B
:1039E000DF91CF911F910F91FF90EF90089508956F
:1039F0000C94F71C0E94F81C6093F1017093F20183
:103A00008093F3019093F4010C94EA1808950C94B8
:103A1000FA1C0F931F930091F1011091F201209174
:103A2000F3013091F401602B712B822B932B1F91AA
:103A30000F910C94FA1C0F931F930091F1011091B8
:103A4000F2012091F3013091F4016023712382236C
:103A500093231F910F910C94FA1C0F931F930091C5
:103A6000F1011091F2012091F3013091F4016027EE
:103A70007127822793271F910F910C94FA1C0C94A5
:103A8000CA040E943F1D6093ED017093EE01809384
:103A9000EF019093F0010C94EA1860E070E0CB0124
:103AA0000C94411D0F931F9341E050E060E070E0E3
:103AB0008A019B0104C0000F111F221F331F8A952A
:103AC000D2F7C901B8011F910F910C94411D0F93BA
:103AD0001F9341E050E060E070E004C0440F551FC8
:103AE000661F771F8A95D2F78091ED019091EE01C4
:103AF000A091EF01B091F0018A019B01082B192BD5
:103B00002A2B3B2BC901B8011F910F910C94411D29
:103B10000F931F9341E050E060E070E004C0440F59
:103B2000551F661F771F8A95D2F74095509560956F
:103B300070958091ED019091EE01A091EF01B0910F
:103B4000F0018A019B01082319232A233B23C90181
:103B5000B8011F910F910C94411D0F931F9341E0E9
:103B600050E060E070E004C0440F551F661F771FEF
:103B70008A95D2F78091ED019091EE01A091EF012D
:103B8000B091F0018A019B01082719272A273B27BA
:103B9000C901B8011F910F910C94411D0F931F9300
:103BA0000091ED011091EE012091EF013091F001B3
:103BB000602B712B822B932B1F910F910C94411D25
:103BC0000F931F930091ED011091EE012091EF01F1
:103BD0003091F00160237123822393231F910F9171
:103BE0000C94411D0F931F930091ED011091EE0174
:103BF0002091EF013091F0016027712782279327F0
:103C00001F910F910C94411D08952CE0929F800DFF
:103C10001124A82FA695A695A695877051E001C0FE
:103C2000550F8A95EAF785E0A89FD001112420E07E
:103C300030E070E0F901EA0FFB1FE153FE4F4081D5
:103C4000CB01022E02C0969587950A94E2F7817007
:103C50009927819584278523842780832F5F3F4F71
:103C60002530310539F708952CE0929F800D1124FD
:103C7000682F669566956695982F977085E0689F82
:103C8000B001112440E050E080E0FA01E60FF71F98
:103C9000E153FE4F208130E0092E02C03695279572
:103CA0000A94E2F721703327042E01C0220F0A94F0
:103CB000EAF7822B4F5F5F4F4530510531F708958A
:103CC000BF92CF92DF92EF92FF920F931F93CF9309
:103CD000DF938C01C090F101D090F201E090F301EC
:103CE000F090F4018091ED019091EE01A091EF012F
:103CF000B091F001C82AD92AEA2AFB2ACFE1D0E004
:103D0000D701C6010C2E04C0B695A7959795879547
:103D10000A94D2F780FF07C0BC2EB8018C2F0E94F6
:103D20009908019719F4219758F7B12C8B2DDF9141
:103D3000CF911F910F91FF90EF90DF90CF90BF90A8
:103D40000895CF93DF93EC010E94601EBE010E9494
:103D50009908DF91CF9108951F93CF93DF93EB01E3
:103D600090919601992321F0CB010E94A11E13C0CE
:103D7000882349F0CB010E94601E182F682FCE01C6
:103D80000E94051E04C0CB010E94341E182FBE01E4
:103D9000812F0E949908DF91CF911F910895809102
:103DA000F50185958595859508958091F501877034
:103DB00008959091F501977081E009F480E00895ED
:103DC00080911902089590911902892B809319020C
:103DD000089580959091190289238093190208957E
:103DE00010921902089590911802892B809318025D
:103DF0000895809590911802892380931802089560
:103E000010921802089590911702892B809317023F
:103E10000895809590911702892380931702089541
:103E20001092170208958091F601089508950C9458
:103E3000161F9091F601981721F08093F6010C94CB
:103E4000171F08958091F601882329F01092F6013A
:103E500080E00C94171F0895E0911001F09111017A
:103E6000809119028083E0911001F09111019081FD
:103E700080911802892B8083E0911001F09111014B
:103E8000908180911702892B80838091F60188238D
:103E900081F0E0911001F09111019081892B8083D4
:103EA00080911001909111010E94372081110E9490
:103EB000221F80911001909111010C943A130895E2
:103EC0000C945F1F98E0899F90011124262B20936A
:103ED000F5010E94671D8091F50185958595859571
:103EE0000C94601F1092F50180E00C94601F2091EB
:103EF000F501809582238093F501982F977079F4CE
:103F000030E0482F082E000C550B2417350739F0E8
:103F10008595859585950E94881D0C94721F08953E
:103F200080E090E00E94A62D21E08C3E9E4F09F09B
:103F300020E0822F089582E090E00C94982D83E099
:103F400090E00C94982DCF9384E090E00E94982DFF
:103F5000C82F81E290E00E94982D2C2F30E0A9011B
:103F6000582BCA01CF910895CF93C92F682F84E0B1
:103F700090E00E94AC2D6C2F81E290E0CF910C94E8
:103F8000AC2DAB01BC018FE090E00C94BE2DAB01D9
:103F9000BC0183E190E00C94BE2D60E070E0CB01A9
:103FA0000C94C71F60E070E0CB010E94C11F0C940D
:103FB000CD1F6CEE7EEF80E090E00E94CA2D60E0A5
:103FC00082E090E00E94AC2D60E083E090E00E94EF
:103FD000AC2D1092F1011092F2011092F3011092A7
:103FE000F40160E084E090E00E94AC2D60E081E2AA
:103FF00090E00E94AC2D60E085E090E00E94AC2D46
:1040000060E086E090E00E94AC2D6FEF87E090E0EA
:104010000E94AC2D40E050E0BA0188E090E00E94A0
:10402000BE2D60E08DE090E00E94AC2D40E050E0BD
:10403000BA0188E190E00E94BE2D60E087E190E047
:104040000E94AC2D40E050E0BA018CE190E00E946B
:10405000BE2D60E080E290E00E94AC2D0C94D21F57
:104060000C94D91F682F8EE090E00C94AC2DFC01CD
:10407000329680912201882331F08091610287FF7E
:1040800002C09EE101C096E080E0915028F02191AD
:104090002223D9F38F5FF9CF08959C01FC0132965A
:1040A0009FEF80E04191461789F09F3F19F441113D
:1040B00001C0982F8F5F8630A9F79F3F39F0F90133
:1040C000E90FF11D97FDFA95628308950895FC01AB
:1040D000329608962081261301C010823196E81787
:1040E000F907C1F70895262F2695269526952E3196
:1040F00068F4FC01E20FF11D677021E030E001C0BF
:10410000220F6A95EAF78281282B22830895262FB1
:104110002695269526952E3170F4FC01E20FF11DAF
:10412000677021E030E001C0220F6A95EAF7209520
:10413000828128232283089520912201222329F0BD
:104140002091610227FD0C9473200C944D20209146
:104150002201222329F02091610227FD0C9487205F
:104160000C94672020912201FC013296222331F029
:104170008091610287FF02C08EE101C086E0DF010D
:104180001D928A95E9F7089508950C94C4200E9421
:10419000C52080916702843009F439C010921B0257
:1041A00020E488E190E00FB6F894A8958093600031
:1041B0000FBE2093600080E00E949A050E94A91122
:1041C00080911C0281110AC081E080931C028091C1
:1041D0004D02817080931D020E94D7100E94C5205D
:1041E00083B7817F846083BF83B7816083BF789406
:1041F000889583B78E7F83BF0FB6F894A89580917A
:104200006000886180936000109260000FBE089586
:1042100008950895CF930E9408210E94900B0E9458
:104220000921C0E08C2F0E94270B892B29F4CF5F36
:10423000C430C1F780E001C081E0CF9108950895B6
:104240000C941F210E9404190E942E130E949A05AB
:1042500010921C0280911D0281110E94A1110E94E6
:10426000E9100C9420211F920F920FB60F92112487
:104270008F939F93AF93BF9380911B02811113C0C3
:1042800080915D0290915E02A0915F02B091600208
:104290004196A11DB11D80935D0290935E02A09393
:1042A0005F02B0936002BF91AF919F918F910F9089
:1042B0000FBE0F901F90189582E084BD93E095BDCE
:1042C0009AEF97BD80936E0008952FB7F894809170
:1042D0005D0290915E02A0915F02B09160022FBFDB
:1042E0000895CF92DF92EF92FF920F931F932FB713
:1042F000F89440915D0250915E0260915F0270916E
:1043000060022FBF6A017B01EE24FF248C0120E0B4
:1043100030E0C016D106E206F30610F44150510910
:104320009A01281B390BC9011F910F91FF90EF9043
:10433000DF90CF90089578941F920F920FB60F924E
:1043400011248F939F93AF93BF9380915D029091BF
:104350005E02A0915F02B09160020196A11DB11DA5
:1043600080935D0290935E02A0935F02B09360021F
:10437000BF91AF919F918F910F900FBE0F901F90A3
:10438000189581E08093E00080E28093D80010923D
:10439000C9008FE19EE40197F1F700C0000087E0BB
:1043A00090EBDC018093700290937102A0937202F3
:1043B000B09373029CE088E10FB6F894A8958093BF
:1043C00060000FBE90936000FFCF0E94901F81118C
:1043D00002C00E9430200E949B1F80931A020E94FC
:1043E000A31F90936202809361020E949F1F682F17
:1043F00070E080E090E00C94071D8091210280FF26
:104400000BC06091150185E0689FB001112475957E
:104410006795759567952BC081FF09C0609115015F
:1044200085E0689FB00111247595679520C082FFD3
:1044300007C06091150185E0689FB001112417C085
:10444000909120029923D1F060911401961788F77A
:104450002091150185E0289F90011124929FA001D1
:10446000939F500D112470E0CA010E94652D6038A1
:10447000710540F46115710539F002C065E070E026
:10448000862F08958FE7089581E008958091210295
:1044900080FF08C06091130170E075956795759570
:1044A000679521C081FF06C06091130170E075958A
:1044B000679519C082FF04C06091130170E010C0BD
:1044C000909120029923C1F0609112019617A0F7F4
:1044D00080911301899FC001112470E00E94652D15
:1044E0006038710528F46115710521F0862F089553
:1044F0008FE7089581E0089561E070E0F4CF803F98
:1045000021F40E94FD21819504C0813F29F40E947D
:10451000FD21809325020895823F21F40E94FD2110
:10452000819504C0833F29F40E94FD2180932402D9
:104530000895893F19F40E94462205C08A3F31F44C
:104540000E94462281958093260208958B3F21F494
:104550000E944622819504C08C3F29F40E94462285
:10456000809327020895843F21F480912302816083
:1045700017C0853F21F480912302826011C0863FDD
:1045800021F48091230284600BC0873F21F4809145
:104590002302886005C0883F31F480912302806146
:1045A0008093230208958D3F21F480912102816040
:1045B0000BC08E3F21F480912102826005C08F3FA5
:1045C00029F4809121028460809321020895803F24
:1045D00039F48091250287FF6CC01092250269C0D2
:1045E000813F29F4809125021816BCF362C0909196
:1045F0002402823F29F497FF5CC01092240259C024
:10460000833F19F41916CCF354C0893F41F48091CB
:10461000260218160CF04DC0109226024AC08A3F9E
:1046200029F48091260287FF44C0F6CF8B3F39F4EE
:104630008091270287FF3DC0109227023AC08C3F2D
:1046400029F4809127021816BCF333C0843F21F46B
:10465000809123028E7F17C0853F21F48091230231
:104660008D7F11C0863F21F4809123028B7F0BC088
:10467000873F21F480912302877F05C0883F31F472
:10468000809123028F7E8093230213C08D3F21F4FB
:10469000809121028E7F0BC08E3F21F480912102F8
:1046A0008D7F05C08F3F29F4809121028B7F8093FD
:1046B00021028091240281110EC080912502811176
:1046C0000AC080912602811106C0809127028111C3
:1046D00002C010922002089582E292E00E945413D8
:1046E0000E94652190931F0280931E0208951F93DC
:1046F000CF93DF9380911E0290911F020E9471213F
:10470000AC0190912002992321F02091160130E014
:1047100006C0209117018AE0289F900111244217BA
:10472000530708F47BC080912402C0912502D091E8
:10473000260210912702811107C0C1116BC0D1114F
:1047400069C0111167C06AC09F3F19F09F5F9093C5
:104750002002181624F40E94FD21809324028091E7
:10476000240287FF05C00E94FD21819580932402C9
:104770001C1624F40E94FD218093250280912502BD
:1047800087FF05C00E94FD2181958093250230910D
:1047900024023323E1F0209125022223C1F045EBCE
:1047A0003403C0011124892F990F990B009709F444
:1047B00081E08093240235EB2303C0011124892F6B
:1047C000990F990B009709F481E0809325021D163B
:1047D00024F40E944622809326028091260287FFBD
:1047E00005C00E944622819580932602111624F46A
:1047F0000E944622809327028091270287FF05C0EE
:104800000E944622819580932702DF91CF911F91CC
:104810000C946C239F3F09F099CFA1CFDF91CF91EA
:104820001F910895E2E2F2E086E0DF011D928A9591
:10483000E9F710922002109221020895833081F14D
:1048400028F4813059F08230D1F00895853009F490
:1048500049C0B8F1863009F456C008958091170117
:10486000262F30E0280F311D2F3F310524F4680F2B
:104870006093170108958FEF809317010895809139
:104880001601262F30E0280F311D2F3F310524F46B
:10489000680F6093160108958FEF809316010895B5
:1048A00080911501262F30E0280F311D2F3F310553
:1048B00024F4680F6093150108958FEF809315011C
:1048C000089580911401262F30E0280F311D2F3FCD
:1048D000310524F4680F6093140108958FEF8093DD
:1048E0001401089580911301262F30E0280F311D07
:1048F0002F3F310524F4680F6093130108958FEF63
:1049000080931301089580911201262F30E0280F23
:10491000311D2F3F310524F4680F60931201089573
:104920008FEF809312010895833011F128F48130C4
:1049300049F0823091F00895853081F120F1863080
:10494000C1F1089580911701681720F4861B8093A8
:1049500017010895109217010895809116016817A4
:1049600020F4861B80931601089510921601089575
:1049700080911501681720F4861B80931501089516
:1049800010921501089580911401681720F4861B78
:1049900080931401089510921401089580911301D9
:1049A000681720F4861B8093130108951092130159
:1049B000089580911201681720F4861B80931201DC
:1049C00008951092120108950F931F93482F50E0FD
:1049D000FA013597EF33F10508F07FC0EC58FF4F2F
:1049E0000C94792D0E94302071C080911A02817F31
:1049F0008E7F80931A0281E0809329026FC00E940B
:104A000004190FEF13ED20E3015010402040E1F7AF
:104A100000C000000E94C12159C080911A02982F45
:104A20009095917090FB80F980931A0291114EC07D
:104A3000897F877F10C080911A0281FB222720F98D
:104A400091E0922790FB81F980931A029923F1F16A
:104A500080911A02816080931A0238C080911A02F4
:104A600082FB222720F991E0922790FB82F9ECCF7C
:104A700080911A0283FB222720F991E0922790FB74
:104A800083F9E2CF0E9404198091610287FB2227FB
:104A900020F991E0922790FB87F98093610216C07C
:104AA000895301C08D5141E050E060E070E08A011F
:104AB0009B0104C0000F111F221F331F8A95D2F7DC
:104AC000C901B8010E94071D0E94041981E006C0B7
:104AD00061E070E080E090E0F5CF80E01F910F9101
:104AE000089580E0089580E008958E518A3030F472
:104AF000E82FF0E0E85AFE4F8081089580E00895A5
:104B0000CF93C82F80912902813069F018F082304C
:104B1000C9F183C0E0911001F091110180818232CE
:104B200009F07DC007C0E0911001F0911101808172
:104B3000823261F48C2F0E947125811104C08C2F68
:104B40000E94E4241DC081E090E01AC08C2F0E94D6
:104B50007325811114C0C43179F048F4CB3079F059
:104B6000C03109F060C082E08093290208C0C932D8
:104B700019F0C83321F057C01092290254C081E0C7
:104B8000817053C0C93289F118F5C43171F1B0F4A4
:104B9000C73009F046C08EE18093170182E380930D
:104BA00016018AE08093150184E18093140188E066
:104BB0008093130188E28093120133C082EE8C0F40
:104BC000863078F58C2F0E9475258093280229C0A5
:104BD000CE34E9F020F4CB3421F56AE013C0C135BE
:104BE00079F0C235F1F461E00DC08091280288238C
:104BF00019F01092280215C081E08093290215C097
:104C000061E006C0809128020E941E240AC06AE06A
:104C1000809128020E94942404C01092290280E00E
:104C200004C081E002C080E0ABCFCF9108958091B5
:104C30004A0208950F931F93CF93DF9300D01F92E2
:104C4000CDB7DEB78C010E948A28823011F0843003
:104C500021F584E089831B830A8382E08093E90045
:104C60008FEF9091E800815095FD06C095ED9A95E3
:104C7000F1F700008111F5CF8091E80085FF0DC0AC
:104C800040E050E063E070E0CE0101960E94A7286A
:104C90008091E8008E778093E8000F900F900F903E
:104CA000DF91CF911F910F910895CF93DF9300D0A3
:104CB0001F92CDB7DEB720916702243031F523E093
:104CC0002983805891099B838A8382E08093E9003D
:104CD0008FEF9091E800815095FD06C095ED9A9573
:104CE000F1F700008111F5CF8091E80085FF0DC03C
:104CF00040E050E063E070E0CE0101960E94A728FA
:104D00008091E8008E778093E8000F900F900F90CD
:104D1000DF91CF910895CF93DF93EC010E948A2811
:104D2000823011F08430F9F482E08093E9009FEF43
:104D30008091E800915085FD06C085ED8A95F1F7D8
:104D400000009111F5CF8091E80085FF0CC040E094
:104D500050E066E070E0CE010E94A7288091E80054
:104D60008E778093E800DF91CF910895CF93DF9302
:104D7000EC010E948A28823011F08430D9F58091AC
:104D80002201882339F08091610287FF03C060E22D
:104D900082E002C068E081E08093E9008FEF9091AB
:104DA000E800815095FD06C095ED9A95F1F7000059
:104DB0008111F5CF8091E80085FF1CC08091220110
:104DC000811105C040E050E068E070E003C070E091
:104DD00040E050E0CE010E94A7288091E8008E7745
:104DE0008093E80080E2FE01AAE2B2E001900D9219
:104DF0008A95E1F7DF91CF91089580916602811144
:104E000009C00E943C2A0E94992A8091E200846095
:104E10008093E2000895109266020895089508951F
:104E20000C94222142E061EC81E00E94B62942E22A
:104E300061EC82E00C94B62980916902833009F418
:104E400060C030F4813071F0823009F499C0089567
:104E50008A3009F485C08B3009F46BC0893009F0C1
:104E6000A7C020C080916802813A09F0A1C080915A
:104E7000E800877F8093E80080916C0290916D023A
:104E8000892B21F460E28AE292E003C060E080E0D6
:104E900090E070E00E94F2288091E8008B77809388
:104EA000E800089580916802813209F081C0809104
:104EB0006C0290916D02029708F07AC08091E80030
:104EC000877F8093E8008091E80082FD05C0809193
:104ED00067028111F8CF6CC02091F3008091F2003D
:104EE00090E0922B029729F48091F1008B7F813022
:104EF00021F48091F10080934A028091E8008B7741
:104F000053C080916802813A09F052C080916C02CE
:104F100090916D02892B09F04BC08091E800877F4A
:104F20008093E8008091E80080FFFCCF809122010F
:104F300036C0809168028132D9F580916C029091DF
:104F40006D02892BA9F58091E800877F8093E800A6
:104F50000E94EB2980916A02809322010C9404192B
:104F600080916802813221F58091E800877F8093EB
:104F7000E8000E94EB2980916B0280934B02089518
:104F800080916802813AA1F48091E800877F809344
:104F9000E8008091E80080FFFCCF80914B02809375
:104FA000F1008091E8008E778093E8000C94EB2963
:104FB000089584B7877F84BF0FB6F894A895809131
:104FC0006000886180936000109260000FBE80E8EE
:104FD00080936100109261000E949B130E943C2A02
:104FE0000E94992A8091E20084608093E200789484
:104FF0000E94282D0E94A31388E191E00E942913AA
:1050000080916702853069F40E94C7208091650213
:105010008823B1F30E940A21882391F30E949128EA
:10502000EFCF0E94AD130E94AC11EACF0C94182868
:10503000292F332723303105C9F064F4213031059D
:1050400081F02230310509F04CC08BE390E02BED6C
:1050500036E04BC02132310521F12232310589F190
:1050600040C082E190E026E137E03FC099278130DF
:10507000910571F02CF4892BA1F5E7EDF6E00DC058
:105080008230910541F0039761F5EBE9F6E005C048
:10509000E3EBF6E002C0E1EAF6E0849190E09F01E4
:1050A00024C06115710541F061307105D1F489E0CA
:1050B00090E026E037E019C089E090E02DEE36E080
:1050C00014C06115710541F06130710551F480EC37
:1050D00090E028E237E009C080E490E028EE37E075
:1050E00004C080E090E020E030E0FA0131832083CA
:1050F00008950895CF93C82F0E947928C0934C0239
:10510000CF91089580916702843011F081E0089575
:1051100082E0089580914C02811102C00C94822893
:10512000089580E189BD82E189BD09B400FEFDCF0B
:105130008091D8008F7D8093D8008091E0008260BC
:105140008093E0008091E00081FDFCCF0895CF9234
:10515000DF92EF92FF920F931F93CF93DF93EC01B7
:105160008B016A010E940A2A811133C0C114D10443
:1051700039F0F60180819181081B190BC80FD91FE6
:10518000E12CF12C0115110519F18091E80085FD44
:1051900016C08091E8008E778093E800C114D10496
:1051A00049F0F60180819181E80EF91EF182E082DA
:1051B00085E00FC00E940A2A882321F30AC0899142
:1051C0008093F10001501109FFEFEF1AFF0ADACFC7
:1051D00080E0DF91CF911F910F91FF90EF90DF90D2
:1051E000CF90089520916E0230916F0226173707F5
:1051F00048F06115710539F42091E8002E7720936D
:10520000E80001C0B90140E061157105A9F12091E4
:105210006702222309F443C0253009F442C02091DB
:10522000E80023FD40C02091E80022FD32C020911B
:10523000E80020FFE9CF4091F3002091F20030E038
:10524000342BFC01CF016115710559F0283031056F
:1052500040F481918093F100615071092F5F3F4FBD
:10526000F1CF41E02830310509F040E02091E8001D
:105270002E772093E800C8CF4111C9CF0AC0809192
:105280006702882361F0853061F08091E80083FD3A
:105290000AC08091E80082FFF2CF80E0089582E0AA
:1052A000089583E0089581E0089520916E02309181
:1052B0006F022617370748F06115710539F4209100
:1052C000E8002E772093E80001C0B901FC0120E03E
:1052D0006115710591F180916702882309F440C03E
:1052E000853009F43FC08091E80083FD3DC0809186
:1052F000E80082FD2FC08091E80080FFE9CF209177
:10530000F3008091F20090E0922B6115710559F045
:105310008830910540F424912093F100319661503A
:1053200071090196F2CF21E0089709F020E0809101
:10533000E8008E778093E800CBCF2111CCCF0AC054
:1053400080916702882361F0853061F08091E800E8
:1053500083FD0AC08091E80082FFF2CF80E00895CB
:1053600082E0089583E0089581E00895982F9730B2
:1053700058F59093E900981739F07091EC0020915E
:10538000ED005091F00003C0242F762F50E021FF54
:1053900019C03091EB003E7F3093EB003091ED006F
:1053A0003D7F3093ED003091EB0031603093EB00A6
:1053B0007093EC002093ED005093F0002091EE00EC
:1053C00027FF07C09F5FD3CF8F708093E90081E0F4
:1053D000089580E008958091680287FF11C0809150
:1053E000E80082FD05C0809167028111F8CF11C0ED
:1053F0008091E8008B770BC080916702882349F089
:105400008091E80080FFF8CF8091E8008E7780934C
:10541000E80008952091E4003091E50095E6409180
:10542000EC00842F817040FF22C08091E80080FD55
:105430001CC080916702882391F0853091F08091A3
:10544000EB0085FD10C04091E4005091E50042174B
:10545000530729F39A01915011F784E0089582E0EF
:10546000089583E0089581E0089580E008954091D3
:10547000E80042FFDECF08950E94AA2A0E94B22AC5
:10548000E0EEF0E0808181608083E8EDF0E08081F3
:105490008F77808319BCA7EDB0E08C918E7F8C93C1
:1054A00080818F7E80831092660208950F931F93F0
:1054B000CF93DF930E94AA2A0E94B22AC8EDD0E0BF
:1054C00088818F77888388818068888388818F7DB1
:1054D000888319BC109267021092630210926502D1
:1054E0001092640200EE10E0F80180818B7F8083CF
:1054F00088818160888342E060E080E00E94B62974
:10550000E1EEF0E080818E7F8083E2EEF0E080814A
:1055100081608083808188608083F80180818E7FB4
:105520008083888180618883DF91CF911F910F9163
:105530000895E8EDF0E080818F7E8083E7EDF0E074
:1055400080818160808384E082BF81E080936602F5
:105550000C94562AE8EDF0E080818E7F80831092D3
:10556000E20008951092DA001092E10008951F926F
:105570000F920FB60F9211242F933F934F935F9387
:105580006F937F938F939F93AF93BF93EF93FF930B
:105590008091E10082FF0BC08091E20082FF07C092
:1055A0008091E1008B7F8093E1000E94272D809104
:1055B000DA0080FF1FC08091D80080FF1BC080915F
:1055C000DA008E7F8093DA008091D90080FF0DC0D1
:1055D00080E189BD82E189BD09B400FEFDCF81E093
:1055E000809367020E94FD2605C019BC10926702D5
:1055F0000E940B278091E10080FF19C08091E2009A
:1056000080FF15C08091E2008E7F8093E200809140
:10561000E20080618093E2008091D80080628093F4
:10562000D80019BC85E0809367020E940F27809103
:10563000E10084FF30C08091E20084FF2CC080E153
:1056400089BD82E189BD09B400FEFDCF8091D800FB
:105650008F7D8093D8008091E1008F7E8093E10060
:105660008091E2008F7E8093E2008091E200816071
:105670008093E20080916302882311F084E007C0E8
:105680008091E30087FD02C081E001C083E0809348
:1056900067020E9410278091E10083FF29C080915A
:1056A000E20083FF25C08091E100877F8093E100C5
:1056B00082E080936702109263028091E1008E7F06
:1056C0008093E1008091E2008E7F8093E2008091E0
:1056D000E20080618093E20042E060E080E00E94AE
:1056E000B6298091F00088608093F0000E940E2718
:1056F000FF91EF91BF91AF919F918F917F916F91AA
:105700005F914F913F912F910F900FBE0F901F907F
:1057100018951F920F920FB60F9211242F933F935B
:105720004F935F936F937F938F939F93AF93BF93A9
:10573000CF93DF93EF93FF93C091E900CF708091F7
:10574000EC00D82FD17080FDD0E81092E900809154
:10575000F000877F8093F00078940E94CD2B109208
:10576000E9008091F00088608093F000CD2BCF702D
:10577000C093E900FF91EF91DF91CF91BF91AF917D
:105780009F918F917F916F915F914F913F912F9159
:105790000F900FBE0F901F9018951F93CF93DF931C
:1057A000CDB7DEB7AA970FB6F894DEBF0FBECDBF58
:1057B000E8E6F2E088E08E0F9091F10091938E136D
:1057C000FBCF0E941C278091E80083FF28C18091B5
:1057D000680290916902492F50E04A30510508F063
:1057E0001EC1FA01ED54FF4F0C94792D803821F041
:1057F000823809F014C108C080916402909165025A
:10580000992389F082600FC080916C028F7087307D
:1058100008F005C18093E9008091EB0085FB8827A3
:1058200080F91092E9009091E800977F9093E8004A
:105830008093F1001092F100D0C0282F2D7F09F045
:10584000EEC0882319F0823061F0E9C080916A02CD
:10585000813009F0E4C0933009F080E08093650264
:105860002EC080916A0281112AC080916C028F70D3
:105870002FEF280F263008F0D2C08093E900209146
:10588000EB0020FF1CC0933021F48091EB0080627C
:1058900014C09091EB0090619093EB0021E030E018
:1058A000A90102C0440F551F8A95E2F74093EA0010
:1058B0001092EA008091EB0088608093EB001092D8
:1058C000E9008091E800877F8093E8000E94EB293F
:1058D000A6C08111A4C010916A021F778091E300D5
:1058E0008078812B8093E3008091E800877F80930C
:1058F000E8000E94EB298091E80080FFFCCF8091B6
:10590000E30080688093E300111102C082E001C0CF
:1059100083E08093670283C08058823008F07FC0A4
:1059200080916A0290916B028C3D53E0950779F566
:1059300083E08A838AE289834FB7F894DE01139665
:1059400020E03EE051E2E32FF0E050935700E49175
:1059500020FF03C0E295EF703F5FEF708E2F90E065
:10596000EA3010F0C79601C0C0968D939D932F5FCB
:10597000243149F74FBF8091E800877F8093E8008A
:105980006AE270E0CE0101960E94F22815C0609193
:105990006C0270916D02AE014F5F5F4F0E9416283E
:1059A000BC01892BE1F19091E800977F9093E8008A
:1059B00089819A810E9455298091E8008B77809394
:1059C000E8002DC0803859F58091E800877F8093EA
:1059D000E800809163028093F1008091E8008E7767
:1059E00073CF81111CC090916A029230C0F48091F3
:1059F000E800877F8093E800909363020E94EB2980
:105A000080916302811106C08091E30087FD02C08E
:105A100081E001C084E0809367020E941227809198
:105A2000E80083FF0AC08091E800877F8093E80048
:105A30008091EB0080628093EB00AA960FB6F894F9
:105A4000DEBF0FBECDBFDF91CF911F9108950895A6
:105A5000CF93809167028823A1F0C091E900CF70B5
:105A60009091EC00892F817090FD80E8C82B1092F6
:105A7000E9008091E80083FD0E94CD2BCF70C09398
:105A8000E900CF91089587FB082E062687FD8195B2
:105A900067FD61950E947F2D0EF4919507FC81951D
:105AA0000895AA1BBB1B51E107C0AA1FBB1FA61765
:105AB000B70710F0A61BB70B881F991F5A95A9F7B7
:105AC00080959095BC01CD01089597FB072E16F4A3
:105AD000009407D077FD09D00E94512D07FC05D016
:105AE0003EF4909581959F4F0895709561957F4FF5
:105AF0000895EE0FFF1F0590F491E02D0994991B76
:105B000079E004C0991F961708F0961B881F7A95B4
:105B1000C9F780950895FC014150504030F0019044
:105B20000616D1F73197CF01089588279927089550
:105B3000F999FECF92BD81BDF89A992780B5089555
:105B4000A6E1B0E044E050E00C94D22DA8E1B0E032
:105B500042E050E00C94D22D262FF999FECF92BD51
:105B600081BDF89A019700B4021639F01FBA20BD22
:105B70000FB6F894FA9AF99A0FBE08950396272F54
:105B80000E94AD2D0E94AC2D252F0E94AD2D242FFB
:105B90000C94AD2D0196272F0E94AD2D0C94AC2DA9
:105BA000DC01CB01FC01F999FECF06C0F2BDE1BDDD
:105BB000F89A319600B40D9241505040B8F70895CC
:045BC000F894FFCF87
:105BC400010203030301191A1B1C1D1E1F2021229D
:105BD400F7012808140A321E1726B6268B265526E6
:105BE4001A2601929395963436F6F5F4F1F033972C
:105BF40035F79400010202020206060609090909A2
:105C040009090F0F0F0F0F0F151515181919191969
:105C1400191919191919232401020304050607087F
:025C2400090075
:00000001FF
